:020000040800F2
:10000000E809002001010008E32600083923000860
:10001000E1260008BB080008AD2900080000000028
:10002000000000000000000000000000972700080A
:10003000BD08000800000000952700089927000867
:100040001B0100081B0100081B0100081B01000820
:100050001B0100081B0100081B0100081B01000810
:100060001B0100081B0100081B0100081B01000800
:100070001B0100081B0100081B0100081B010008F0
:100080001B0100081B0100081B0100081B010008E0
:100090001B0100081B0100081B0100081B010008D0
:1000A0001B0100081B0100081B0100081B010008C0
:1000B0001B0100081B0100081B0100081B010008B0
:1000C0001B0100081B0100081B0100081B010008A0
:1000D0001B0100081B0100081B0100081B01000890
:1000E0001B0100081B0100081B010008DFF80CD0F1
:1000F00000F070FB00480047052E0008E8090020CA
:100100000648804706480047FEE7FEE7FEE7FEE7B1
:10011000FEE7FEE7FEE7FEE7FEE7FEE7DF27000873
:10012000ED000008202A04DB203A21FA02F0002129
:10013000704721FA02F3D040C2F1200291400843F7
:100140001946704740EA01039B0703D009E008C93C
:10015000121F08C0042AFAD203E011F8013B00F88C
:10016000013B521EF9D27047D2B201E000F8012BD8
:10017000491EFBD270470022F6E710B513460A4627
:1001800004461946FFF7F0FF204610BD10B50022C7
:1001900000E0521C835C8C5CA34201D1002BF8D19F
:1001A000D8B2E1B2401A10BD70B5064602F024FC88
:1001B000046805460A220021304600F03EFA2C6011
:1001C00070BDF0B480EA0102D40F4200B2EB410FDF
:1001D00002D20246084611464A0042D0C30DDDB2A3
:1001E000C1F3C752AD1A202D35DAC1F3160141F41F
:1001F000000204B15242C5F1200602FA06F12A417A
:100200001044B3EBD05F23D0C4B1012DA0EBC35099
:1002100009DCF0BC4FF0004202EAC352DBB200F549
:10022000000000F04BBA400000F1807000EBC350BA
:10023000A0F1807040EAD170490009E0490841EA24
:10024000C071A0EBC35000F50000400800EBC350A4
:10025000F0BC00F02ABA6142012202EB4101001B0E
:10026000F6E7F0BC704781F00041AAE780F000405B
:10027000A7E780EA010210B502F00043400022D057
:100280004A001FD0010E01EB1261C0F35600C2F309
:10029000560240F4000042F40002A0FB02200004D9
:1002A0007F39140400D0401C50EA124001D44000B1
:1002B000491EC2B20C0604EBD010401C4008802A34
:1002C00002D003E0002010BD20F00100002900DA78
:1002D0000020184310BD2DE9FE4F804681EA03003F
:1002E000C00F0C46009021F0004123F00045B8EB10
:1002F0000200A94105D24046214690461C460B46C5
:10030000024623F00040104347D0270DC7F30A00F0
:10031000C3F30A510290401A019040286BDAC3F3EC
:10032000130040F4801B0098924620B10023D2EBCA
:10033000030A63EB0B0B01985946C0F1400250468B
:1003400000F05AF906460D4650465946019A00F00B
:1003500062F910EB08006141002487EA115284EA37
:10036000E7731A4340D0009A62B3019A012A4FEA18
:10037000075215DC001B61EB02014FF0004202EA5C
:100380000752CDE90042001C41F5801132462B4650
:1003900000F0D1F903B0BDE8F08F40462146F9E7FF
:1003A000001B61EB0201001C41F5801300185B414A
:1003B0002018A2F5001747EB030140EAD570B619E3
:1003C0006D4111E06D084FEA360645EAC0754FEA07
:1003D0000752001B61EB0201001C41F58011490826
:1003E0004FEA30000019514132462B4603B0BDE8B8
:1003F000F04F00F091B90098012240000023D0EBAB
:10040000020263EBE073009821464FEAE074B8EB18
:10041000000061EB0401E9E783F000435BE781F052
:10042000004158E72DE9FE4F81EA030404F000443F
:1004300021F0004100944FF0000B23F0004350EAFC
:1004400001045ED052EA03045BD0C3F30A54C1F343
:100450000A552C44A4F2F3340194A0FB0254C1F3D6
:10046000130141F48011C3F3130343F4801301FB20
:10047000024400FB034E840A970A44EA815447EA87
:100480008357A4FB076802958D0A05FB07854FEA91
:10049000932C04FB0C542705029D4FEA065847EAAB
:1004A0001637B5EB08056EEB070C870E920E47EA80
:1004B000811742EA8312A7FB0201B6EB0B0164EB42
:1004C00000042B0D43EA0C335E1844EB1C50DA4653
:1004D0005146E7FB0201C5F313044FEA0B3343EA2D
:1004E00014534FEA0432019C43EA0603A4F10C04BE
:1004F0000294009CCDE900B400F01DF903B0BDE802
:10050000F08F00200146F9E7C10F80EAE07008444F
:10051000CA079623002100F0D1B896230022114685
:1005200000F0CCB80EB5C10F80EAE0700844CA07ED
:10053000002140F233438DE80E000A460B4600F0DE
:10054000FAF803B000BD20F00040C10DC0F3160062
:1005500040F400007F2901DA00207047962903DC6F
:10056000C1F19601C840704796398840704700F045
:10057000004230F000400AD0C10D01F56071C0F3B7
:10058000160042EA0151C20840071143704700209B
:100590000146704701F0004330B421F0004150EAB9
:1005A000010206D00A0DA2F56072C1F31301002A00
:1005B00002DC30BC00207047440F44EAC104C10093
:1005C000E01830BC00EBC25000F06FB830B50B46FD
:1005D000014600202022012409E021FA02F59D4273
:1005E00005D303FA02F5491B04FA02F52844151E47
:1005F000A2F10102F1DC30BD202A04DB203A00FA2E
:1006000002F1002070479140C2F1200320FA03F369
:10061000194390407047202A06DBCB17203A41FA55
:1006200002F043EAE07306E041FA02F3D040C2F17F
:10063000200291400843194670472DE9F047914642
:100640000F4680460446002614F8015B2DB100F0E9
:10065000D3F80068405DC007F6D12B2D02D02D2DB8
:1006600018D0641E4A463946204600F0C9F827B122
:100670003968A14201D1C7F8008071054FF002042A
:100680000BD54042002803DD02F0B6F90460A00754
:10069000BDE8F08746F48066E4E70028F8DA02F067
:1006A000ABF904606FF00040F2E70029A8BF704783
:1006B000401C490008BF20F00100704710B4B0FA98
:1006C00080FC00FA0CF050EA010404BF10BC704733
:1006D00049B1CCF1200421FA04F411FA0CF118BF4D
:1006E000012121430843A3EB0C01CB1D4FEA00611C
:1006F0004FEA102042BF002010BC704700EBC350EF
:1007000010440029A4BF10BC7047401C490008BF1A
:1007100020F0010010BC704710B5141E73F10004E6
:1007200008DA401C41F1000192185B411A4301D1E3
:1007300020F0010010BD2DE9F04D92469B4611B10D
:10074000B1FA81F202E0B0FA80F220329046FFF76F
:1007500053FF04460F4640EA0A0041EA0B015346A4
:100760005A46084313D0114653EA010019D0C8F184
:1007700040025046FFF7D6FC05460E465046594605
:100780004246FFF739FF084305D0012004E0204628
:100790003946BDE8F08D0020054346EAE0762C435B
:1007A00037430A986305E40AA0EB08000022FD0A1B
:1007B00044EA47540A3002D500200146E9E7010522
:1007C00010196941DDE9084500196941BDE8F04D9E
:1007D000A2E70000064C074D06E0E06840F0010388
:1007E00094E8070098471034AC42F6D3FFF782FC38
:1007F000D0470008F0470008004870477C470008D1
:100800002DE9F05F82460078002715468B460AF1F5
:100810000104B946302801D09DB113E014F8010B52
:100820000127782803D0582801D045B10AE00DB13E
:10083000102D07D10027102514F8010B02E0082520
:1008400000E00A250026B0460EE005FB080005FB87
:1008500006F1012701EB10461FFA80F8B6F5803F3C
:1008600000D3B94614F8010B294600F018F8002807
:10087000EBDABBF1000F05D00FB1641E00E0544667
:10088000CBF80040B9F1000F06D002F0B5F8022114
:100890000160C81EBDE8F09F48EA0640FAE73A2822
:1008A00000D2303820F02002412A01D3A2F13700D3
:1008B000884201D34FF0FF307047FEE7704730B4F5
:1008C0000C78082C1AD2DFE804F0040D10190A077E
:1008D000131630BC00F08AB930BC00F057BA30BCF7
:1008E00000F03CB830BC00F09DBD30BC00F0B6BBA1
:1008F00030BC00F0DDBC30BC00F010B930BC70473B
:1009000030B50025039C8D7280E81C0030BD0121AC
:1009100081720178082913D2DFE801F0040A0C1271
:1009200008060E1000F084B900F078BA00F026B87E
:1009300000F09ABD00F024BC00F0DCBC00F0FEB872
:10094000704700000421017003A141600021017281
:1009500001224272817270476100000018B5064C96
:100960000022227062705A6900921A461B69D2688E
:10097000FFF7C6FF18BD000082000020F8B5314E19
:100980000027012537707770384602F023FB02F00C
:10099000A7FB022070702C4C00953346D4E900125E
:1009A0002AA000F0EFFDD4E900122B46304600F0FB
:1009B000D7FA77700095D4E90012334628A000F0EA
:1009C000E1FDD4E900122B46304600F0C9FA7078F8
:1009D0003346001D70700095D4E9001224A000F089
:1009E000D1FDD4E900122B46304600F0B9FA00954B
:1009F000D4E90012334622A000F0C4FDD4E900126D
:100A00002B46304600F0ACFA0095D4E9001233468C
:100A10001FA000F0B7FDD4E900122B46304600F0CD
:100A20009FFA0095D4E9001233461EA000F0AAFDFB
:100A3000D4E900122B46304600F092FABDE8F840A7
:100A400002F04EBB82000020140000205F5F5F5F59
:100A50005F5F5F5F5F5F5F5F5F5F5F5F0000000022
:100A600052504D20636F6E74726F6C6C6572000033
:100A700064657369676E65642062793A00000000FE
:100A8000416C692046656C6520506172616E6A0038
:100A9000456C616865204D6F6C6C61686579646157
:100AA000720000004E6F76656D62657220323032E2
:100AB0003000000070B5007809781446B0FBF1F200
:100AC000DDE9045601FB1200002817D1207859787F
:100AD0000028187803D002F0FDFA012302E002F0AA
:100AE000F9FA00233246294605A002F07FFB207860
:100AF000C0432070BDE8704002F0F2BA70BD000043
:100B0000200000000721017003A141600121017252
:100B100000214172817270477700000018B5064CC1
:100B20000022227062705A6C00921A461B6CD26BC3
:100B3000FFF7E6FE18BD000082000020164910B540
:100B400000200870487002F045FA002002F042FAD6
:100B50000821112002F0BEFA10480123D0E900124A
:100B60000FA002F043FB2321022002F0B3FA0F4C46
:100B700001230FA0D4E9001202F038FB2E2102203D
:100B800002F0A8FAD4E9001201230DA002F02EFB16
:100B9000BDE8104002F0A4BA820000201C00002032
:100BA000496E76616C696421000000001400002029
:100BB00031323C73706565643C34303000000000B5
:100BC000707265737320616E79206B65792E2E2E9D
:100BD000000000000021017003A2426001220272A5
:100BE00041728172704700004D000000F8B5064662
:100BF0000D480024154604704470107865280BD009
:100C00000A480094084BD0E90012284600F0BAFCCC
:100C1000BDE8F84002F064BA58690090D3E90323B4
:100C20003046FFF76DFEF8BD820000201400002062
:100C300070B54549002008704870012002F0CAF9DB
:100C400002F04EFA0A210F2002F044FA3F4C002332
:100C50003FA0D4E9001202F0C9FA2421302002F0AA
:100C600039FAD4E9001200233CA002F0BFFA02F0E6
:100C700037FA4FF4FA75284600F09AFC002002F08B
:100C8000A9F90A210F2002F025FAD4E90012012364
:100C90002FA002F0ABFA2421302002F01BFAD4E995
:100CA000001201232DA002F0A1FA02F019FA284641
:100CB00000F07EFC012002F08DF90A210F2002F0E5
:100CC00009FAD4E90012002321A002F08FFA2421AE
:100CD000302002F0FFF9D4E9001200231FA002F037
:100CE00085FA02F0FDF9284600F062FC002002F0CF
:100CF00071F90A210F2002F0EDF9D4E90012012365
:100D000013A002F073FA2421302002F0E3F9D4E9B1
:100D10000012012311A002F069FA02F0E1F928465D
:100D200000F046FC012002F055F90A21052002F0EE
:100D3000D1F90B480023D0E900120AA002F056FABC
:100D4000BDE8704002F0CCB9820000201C000020F9
:100D50004E616E6F20546563680000004C61620054
:100D6000140000205072657373204573632E2E2E7D
:100D7000000000000521017003A141600021017203
:100D800001224272817270476D0000002DE9FC4122
:100D900080461F4800250F46057045701C461646C4
:100DA0001CA11046FFF7F2F901001B4825D031784D
:100DB000312913D0322916D034290AD00095D0E930
:100DC0000012134B304600F0DDFBBDE8FC4102F0A1
:100DD00087B9206A0090D4E9062308E0A06B009050
:100DE000D4E90C2303E0606C0090D4E90F2339466A
:100DF0004046FFF785FDBDE8FC81D0E90010044BBB
:100E0000CDE900101A1F911E481CFFF753FEF2E7B0
:100E1000820000205A00000014000020F8B5314E76
:100E20000027012537707770384602F0D3F802F0BA
:100E300057F9022070702C4C00953346D4E900120B
:100E40002AA000F09FFBD4E900122B46304600F0A8
:100E500087F877700095D4E90012334628A000F097
:100E600091FBD4E900122B46304600F079F87078F7
:100E70003346001D70700095D4E9001224A000F0E4
:100E800081FBD4E900122B46304600F069F800954A
:100E9000D4E90012334622A000F074FBD4E900121A
:100EA0002B46304600F05CF80095D4E9001233463A
:100EB0001FA000F067FBD4E900122B46304600F07B
:100EC0004FF80095D4E9001233461CA000F05AFBFD
:100ED000D4E900122B46304600F042F8BDE8F84055
:100EE00002F0FEB882000020140000205F5F5F5F08
:100EF0005F5F5F5F5F5F5F5F5F5F5F5F000000007E
:100F00007072657373206E756D6265723A000000D1
:100F1000312E2073686F7720737065656400000060
:100F2000322E2073657420737065656400000000C4
:100F3000332E2070726F6772616D0000342E206155
:100F4000626F75740000000010B5012002F042F8D5
:100F50000021084602F0BEF8BDE8104002F0C0B81B
:100F60002DE9F0410D46044641781E4617460078AB
:100F700002F0B0F833463A46294605A002F036F9A9
:100F8000607800EB1520607000202070BDE8F081D3
:100F9000200000002DE9F043804689B091460D46BF
:100FA0000846FFF7B4FC234C23A2244E244F2CE028
:100FB0002878012805D1284600F056FAC82000F00C
:100FC000F7FA2878022805D1284600F0C3F86420F3
:100FD00000F0EEFA60792179B0FBF1F201FB12002A
:100FE00060B930686289401C97FBF0F081B211480B
:100FF0000C3001F0C1FB282000F0DAFA684601F05D
:10100000F9FD684601F0C0FD024610785A28CFD09D
:101010004B46294605A8FFF752FCAB7A002B05ABDF
:1010200093E80700C0D1C8E90001C8F8082009B05A
:10103000BDE8F0837C0000205A0000000000002082
:10104000C0D401000221017003A14160012101729D
:101050000021417281727047530000002DE9FF4F5B
:10106000394F8B46A7F10E041178DFF8E090E07855
:1010700081B01D4616464FF0200A4FF00008452962
:1010800020D0652919D0032813D230390A290DD868
:10109000CDF800802C4BD9E90012083B304600F017
:1010A00071FAE07831783954401CE07010F0FF0F8D
:1010B00045D030786C2823D041E068690090D5E9AC
:1010C000032316E00028E0D007F800A01E4801F036
:1010D00056FDA0F10D012081B1F5C17F05D86081D9
:1010E000286D0090D5E9122303E0E86D0090D5E962
:1010F000152359460198FFF703FC05B0BDE8F08FB2
:101100004E46CDF80080104BD6E90012083B10A0E7
:1011100000F038FA0C4D083D2B4628781638287018
:10112000CDF80080D6E9001209A000F02BFA28784B
:101130000B382870E07807F800A0401EE07005B07A
:10114000BDE8F04F01F0CCBF8A0000201C00002059
:10115000200000001CB50849084BD1E900011A1F06
:10116000CDE90001911E481CFFF7A4FC0348801F35
:101170004178491C41701CBD1C00002082000020E9
:101180007FB52D480025841DC570058125706570CB
:10119000012001F01FFF29482949006891FBF0F266
:1011A00028A101A801F004FC03206070012626702C
:1011B0000095254D234625A0D5E9001200F0E2F95F
:1011C000D5E9001200232046FFF7CAFE667004200E
:1011D00020700096D5E90012234621A000F0D2F934
:1011E000D5E9001200232046FFF7BAFE172102209E
:1011F00001F070FF1F480023D0E900121EA001F08B
:10120000F5FF2921682001F065FFD5E900120123CF
:101210001BA001F0EBFF3521012001F05BFFD5E9B8
:101220000012012317A001F0E1FF442020701720D5
:10123000607001F055FF7FBD7C00002000000020A1
:10124000C0D4010025640000140000205F5F5F5FD0
:101250005F5F5F5F5F5F5F5F5F5F5F5F5F5F5F00FD
:101260002020202053657420537065656420202061
:10127000200000001C00002053706565643A0000E7
:1012800052504D007365743A456E742C206D656E36
:10129000753A4573630000000621017003A14160A7
:1012A00001210172002141728172704777000000B4
:1012B000F8B506460D4800241546047044701078B1
:1012C00045280BD00A480094084BD0E90012284664
:1012D00000F058F9BDE8F84001F002BF986B0090AB
:1012E000D3E90C233046FFF70BFBF8BD820000204A
:1012F00014000020304910B500200870487001F03B
:1013000069FE01F0EDFE1721092001F0E3FE2B4CF0
:1013100001232BA0D4E9001201F068FF642000F043
:1013200047F901F0DDFE1721092001F0D3FED4E9D1
:101330000012012324A001F059FF962000F038F993
:1013400001F0CEFE1721092001F0C4FED4E90012FD
:10135000012320A001F04AFFC82000F029F901F084
:10136000BFFE1721092001F0B5FED4E900120123C8
:101370001BA001F03BFFFA2000F01AF901F0B0FECB
:10138000002001F027FE1221092001F0A3FED4E97C
:101390000012012315A001F029FF2D21002001F0EA
:1013A00099FE15480123D0E9001214A001F01EFF98
:1013B000BDE8104001F094BE820000201C00002017
:1013C00053657474696E670053657474696E672E33
:1013D0000000000053657474696E672E2E000000D3
:1013E00053657474696E672E2E2E0000446F6E650F
:1013F000212020202020200014000020707265731E
:101400007320456E742E2E2E000000000121017005
:1014100003A2426001720021417281727047000094
:1014200073000000F8B506460D4800241546047008
:101430004470107865280BD00A480094084BD0E916
:101440000012284600F09EF8BDE8F84001F048BEC2
:1014500058690090D3E903233046FFF751FAF8BDED
:1014600082000020140000202DE9FF412D4C0026B1
:1014700001202670667001F0ADFD2B482B490068F5
:1014800091FBF0F22AA101A801F092FA032060700A
:101490000127284D27700096D5E90012234626A083
:1014A00000F070F8D5E9001200232046FFF758FD40
:1014B0006770042020700096D5E90012234623A00F
:1014C00000F060F8D5E9001200232046FFF748FD40
:1014D0001721022001F0FEFD214C002321A0D4E9B8
:1014E000001201F083FED4E90012002301A801F0EC
:1014F0007DFE2721682001F0EDFDD5E900120123D2
:101500001AA001F073FE3521012001F0E3FDD5E9B9
:101510000012012316A001F069FE01F0E1FDBDE813
:10152000FF8100008200002000000020C0D40100E4
:1015300025640000140000205F5F5F5F5F5F5F5FF6
:101540005F5F5F5F5F5F5F5F5F5F5F0053686172F8
:10155000696620556E69766572736974790000005A
:101560001C00002053706565643A000052504D0025
:101570006D656E753A20686F6C64204573632E2E1E
:101580002E0000002DE9F0410E4680461C4617460D
:1015900059781878069D01F09DFD2B463A46314654
:1015A000404601F023FE2046BDE8F04101F022BD97
:1015B00070B5044600F010F90546601C02D00448DE
:1015C0000078044400F008F9401BA042FAD370BD33
:1015D000040000202DE9F84FDFF8B891002409F14C
:1015E000040A0AF1040B23460F270BF1040EC9E08D
:1015F0000125A5402A40AA427DD1674ED1F804C0FA
:10160000ACEB0608B44532D014DCBCF1030F3AD081
:1016100009DCBCF1000F2AD0BCF1010F1CD0BCF1D9
:10162000020F31D11DE0BCF1110F17D0BCF1120F28
:101630002AD119E0B8F5881F19D006DCB8F5803F2B
:1016400015D0B8F5801F1FD111E0B8F5001F0ED0DE
:10165000B8F5041F18D10AE0CB6815E0CB681B1D54
:1016600012E0CB6808330FE0CB680C330CE08B68DA
:101670002BB1012B4FF0080303D0456104E0042394
:1016800002E0056100E00023FF2A01D8064601E0E0
:1016900000F104064FEA840501D9A5F12005D6F82A
:1016A000008007FA05FC28EA0C0803FA05F548EA69
:1016B0000508C6F800804D68ED0062D5374DAE696B
:1016C00046F00106AE61AD6924F0030605F00105A0
:1016D0000095334D06EB050CDCF80850A607360FD5
:1016E00007FA06F825EA0805DFF8B880404503D177
:1016F0004FF0000817E044E0DFF8AC80404502D12D
:101700004FF001080FE0DFF8A480404502D14FF010
:10171000020808E0DFF89880404502D14FF0030846
:1017200001E04FF0040808FA06F848EA0508CCF88A
:1017300008804D68D9F80060ED034D4601D5164389
:1017400000E096432E604D68DAF80060AD03554620
:1017500001D5164300E096432E604D68DBF800602B
:10176000ED025D4601D5164300E096432E604D68BC
:10177000DEF80060AD02754601D5164300E09643E1
:101780002E60641C0D682A46E5407FF431AFBDE849
:10179000F88F00000004014000001110001002400A
:1017A0000000014000080140000C01400010014011
:1017B000001401408068084000D001207047C268D2
:1017C00021EA02030A4043EA0241016170470AB17B
:1017D000016170470904FBE7014880687047000019
:1017E0000400002070B5040025D094F83D000025C9
:1017F00020B984F83C50204600F050F9242084F8A9
:101800003D002068016821F0010101602068016845
:1018100041F4004101602068016821F40041016049
:1018200000F088FA4D4A6168914201D84C4900E0C5
:101830004C49884201D2012070BD4B492368B0FB5E
:10184000F1F15E6826F03F060E435E6063689342E6
:1018500006D94FF4967359434FF47A73B1FBF3F101
:101860002368491C1E6A26F03F06314319626168ED
:10187000914210D84900401EB0FBF1F2521CC2F355
:101880000B02042A01D2042022E0B0FBF1F0401C3C
:10189000C0F30B001CE0A268F2B301EBC10303EB41
:1018A0000116431EB3FBF6F35B1C43F480431B0598
:1018B00049D092B301EBC10202EB0111401EB0FB13
:1018C000F1F0401CC0F30B0040F4804040F40040B5
:1018D0002168CA694CF6FF739A431043C861D4E982
:1018E000071001432068026822F0C0021143016022
:1018F000D4E9030101432068826848F2FF339A4328
:1019000011438160D4E9050108432168CA6822F0C7
:10191000FF021043C86001E00EE016E02068016895
:1019200041F0010101602564202084F83D00256319
:1019300084F83E50002070BD01EB4106431EB3FB0E
:10194000F6F35B1CB3E70120C2E701EB4101401E47
:10195000B0FBF1F0401CC0F30B00B7E7A08601001C
:1019600080841E0000093D0040420F002DE9FF4F1A
:1019700083B09A46DDE9119793460446DDF840802E
:10198000FFF72AFF054694F83D0020287FD1192350
:10199000012240492046009500F060FD002876D1E4
:1019A00094F83C00012872D0012084F83C002068A3
:1019B0000168C90703D1016841F001010160206895
:1019C000016821F400610160212084F83D0040207D
:1019D00084F83E0000262664C4F82480A4F82A90E7
:1019E000608D20852C48E062CDE9007553465A464B
:1019F0002046049900F0B8FC70B930E02A46394618
:101A0000204600F0AAFD58B1206C042804D12068BB
:101A1000016841F400710160012007B0BDE8F08F5A
:101A2000606A216800780861606A401C6062218DEC
:101A3000491E89B22185628D521E628522685369D2
:101A4000DB435B070BD469B100781061606A401C0E
:101A50006062208D401E2085608D401E6085208D37
:101A60000028CBD12A463946204600F0D1FC002878
:101A7000CAD154F83D0B016841F400710160202087
:101A800004F81E09E67766770020C6E7FFE7022024
:101A9000C3E70000020010000000FFFF10B586B091
:101AA0000021009101910291039100680F49884241
:101AB0001AD10F4CA06940F00800A061A0696946E6
:101AC00000F008000490C020009012200190032034
:101AD00003900848FFF77EFDE06940F40010E061E4
:101AE000E06900F40010049006B010BD00540040FE
:101AF00000100240000C0140024881680278114445
:101B00008160704704000020074810B5016841F06B
:101B100010010160032000F065F8002000F006F8D5
:101B200000F024F8002010BD0020024070B50D4DDB
:101B300004464FF47A712878B1FBF0F00A4909683D
:101B4000B1FBF0F000F0CCFA48B9102C07D200221B
:101B50002146501E00F026F800206C6070BD012068
:101B600070BD000004000020100000200B4808B5E4
:101B7000816941F001018161816901F001010091F8
:101B8000C16941F08051C161C06900F0805000908E
:101B90000348416821F0E061416008BD0010024047
:101BA00000000140F0B40E4B1B680C46C3F3022347
:101BB000C3F10705042D00D90425191D072901D2F9
:101BC000002300E0DB1E012606FA05F1491E214034
:101BD00099409E40761E16403143F0BC00F0FCBE9A
:101BE0000CED00E0064900F0070208684FF6FF031D
:101BF000184040EA0220034A104308607047000082
:101C00000CED00E00000FA052DE9F0470F46050055
:101C100061D0434E306800F00700B84209D2306806
:101C200020F0070038433060306800F00700B84209
:101C300051D128683B4C810712D5400703D5606815
:101C400040F4E06060602878000703D5606840F4E5
:101C5000605060606068A96820F0F0000843606030
:101C60002878C00728D06868012810D02168022889
:101C700010D0890700292EDA616821F003010143A1
:101C80006160FFF7A9FD804641F288390DE02168C7
:101C90008903EFE78901EDE7FFF79EFDA0EB08015F
:101CA000494502D90320BDE8F0876068696800F003
:101CB0000C00B0EB810FEFD1306800F00700B842A4
:101CC0000BD9306820F0070038433060306800F0EE
:101CD0000700B84201D00120E5E72878400705D584
:101CE0006068E96820F4E0600843606028780007D5
:101CF00006D56068296920F4605040EAC100606040
:101D000000F028F86168084AC1F30311515CC8402B
:101D10000649086006480068FFF708FF0020C2E790
:101D2000002002400010024018320008100000207D
:101D3000080000200448054900684968044AC1F3C6
:101D40000221515CC8407047100000200010024082
:101D50002832000812A185B00FC98DE80F0014A029
:101D6000144A006804905168134801F00C03042BD6
:101D700010D0082B0ED1C1F38343C9031DF8030013
:101D80000AD5516804AAC1F34041515C0A4A504344
:101D9000B0FBF1F005B0704708494843FAE700008E
:101DA00002030405060708090A0B0C0D0E0F10109C
:101DB000010200000010024000127A0000093D00FC
:101DC0002DE9F84F040070D02078C04DC00749D0ED
:101DD0006868C0F38100012807D06868C0F38100FB
:101DE000022809D16868C00306D52868800339D560
:101DF00060680028E7D035E06068B0F5803F0BD020
:101E000010B1B0F5A02F11D0286820F480302860E0
:101E1000286820F4802002E0286840F480302860A0
:101E2000606890B1FFF7D8FC06460AE0286840F4E5
:101E300080202860F0E700BFFFF7CEFC801B6428FD
:101E400073D828688003F7D50CE0FFF7C5FC064679
:101E500005E000BFFFF7C0FC801B6428F0D82868AD
:101E60008003F7D420789A4E80074FF001094FF095
:101E7000000839D5686810F00C0F07D06868C0F307
:101E80008100022809D16868C00306D42868800749
:101E900014D52069012808D110E02069B0B1C6F836
:101EA0000090FFF799FC074605E00AE1FFF794FC74
:101EB000C01B0228C4D828688007F7D52868616944
:101EC00020F0F80040EAC10028600DE0C6F800806C
:101ED000FFF782FC074604E0FFF77EFCC01B0228E8
:101EE00023D828688007F7D4207800072CD57948B4
:101EF000A169D9B1C0F80090FFF76EFC074604E075
:101F0000FFF76AFCC01B02280FD8686A8007F7D564
:101F100071484FF4FA510068B0FBF1F0009000BF37
:101F20000098411E0091FAD20EE080E0C0F80080D7
:101F3000FFF752FC074604E0FFF74EFCC01B0228E7
:101F400075D8686A8007F7D42078400760D5E869BB
:101F50000027C00008D4E86940F08050E861E869D3
:101F6000012700F0805000905C480168C90513D437
:101F70000168834641F480710160FFF72DFC8246C1
:101F800006E000BFFFF728FCA0EB0A0064284ED84B
:101F9000DBF80000C005F5D5E06801280AD008B1DB
:101FA000052813D0286A20F001002862286A20F052
:101FB000040002E0286A40F001002862E06841F273
:101FC000883B98B1FFF708FC82460BE0286A40F096
:101FD00004002862EEE700BFFFF7FEFBA0EB0A015A
:101FE00059455AD8286A8007F6D50CE0FFF7F4FB6C
:101FF000824605E0FFF7F0FBA0EB0A0159454CD8FB
:10200000286A8007F6D41FB1E86920F08050E861A3
:10201000E06988B36968C1F38101022944D00228CC
:10202000C6F8608004D0FFF7D7FB044638E034E000
:10203000FFF7D2FB074604E0FFF7CEFBC01B0228E8
:102040002BD828688001F7D4206AB0F5803F05D1ED
:102050006868A16820F4003008436860D4E908018A
:102060000843696821F4741108436860C6F86090F9
:10207000FFF7B2FB044606E025E000BFFFF7ACFB2C
:10208000001B022809D828688001F7D51BE000BF93
:10209000FFF7A2FB001B022802D90320BDE8F88F3E
:1020A00028688001F4D40EE00128F7D06868226A1D
:1020B00000F48031914204D1616A00F470108842CA
:1020C00001D00120EAE70020E8E70000001002400C
:1020D0000000424280044242100000200070004094
:1020E00010B5401EB0F1807F01D3012010BD4FF02C
:1020F000E02460610F21601700F06EFC0020A061F9
:1021000007202061002010BD70B590F83C20012A06
:1021100026D0012480F83C40022280F83D2003684C
:102120005A689D6822F070060A6832435A600D4B67
:1021300002689A4208D0B2F1804F05D00A4B9A4209
:1021400002D00A4B9A4204D1496825F08003194312
:10215000916080F83D40002180F83C10084670BD39
:10216000022070BD002C0140000400400008004027
:1021700000B585B0002100910191029103910068A2
:10218000B0F1804F1BD10F48816941F00801816196
:102190008069694600F0080004904FF48060009068
:1021A0000220019003900848FFF714FA074841689D
:1021B00021F4407141F0E06141F40071416005B0EB
:1021C00000BD000000100240000C01400000014072
:1021D00010B5044690F83C0001280AD0012084F88C
:1021E0003C0042B1042A0AD0082A0CD00C2A11D192
:1021F0000DE0022010BD206800F036FB0AE02068E8
:1022000000F05AFB06E0206800F082FB02E0206844
:1022100000F0AAFB002084F83C0010BD10B50400BB
:1022200003D094F83D0010B107E0012010BD00205C
:1022300084F83C00204600F01FF8022084F83D009E
:10224000211D206800F0CCFA012084F8460084F8B3
:102250003E0084F83F0084F8400084F8410084F890
:10226000420084F8430084F8440084F8450084F870
:102270003D00002010BD000008B50068B0F1804F9F
:1022800008D10548C16941F00101C161C06900F090
:102290000100009008BD00000010024010B5044687
:1022A000022249B104290ED0082913D094F8410024
:1022B000012816D0012010BD94F83E000128F9D164
:1022C00084F83E200FE094F83F000128F2D184F812
:1022D0003F2008E094F840000128EBD184F840202A
:1022E00001E084F841200122206800F0AFFA0F4994
:1022F0002068884203D1426C42F400424264206864
:10230000884208D0B0F1804F05D00949884202D0F8
:102310000849884204D1816801F00701062903D0E9
:10232000016841F001010160002010BD002C014056
:102330000004004000080040FEE701684A69D243FB
:1023400052050FD46FF480624A61002140F8301FBB
:10235000202242738173026942F004020261017318
:1023600001207047002070472DE9F84304460068BB
:102370000D46DDE9089701689846164641F48071DC
:1023800001604B4600224FF001112046009700F0FB
:1023900065F848B120680068C00502D54FF40070A8
:1023A00020640320BDE8F883216805F0FE00086181
:1023B0003B464A461549204600F084F888B9206813
:1023C0004169806900903A464946204600F0C5F8C8
:1023D00048B1206C042804D12068016841F40071E0
:1023E00001600120DEE7F5B2B8F1010F09D02168E4
:1023F000300A08613A464946204600F0AEF8002807
:10240000E7D1206805610020CCE700000200010050
:1024100070B516460D4604460DE02046FFF78DFFC9
:1024200008B1012070BD681C05D0FFF7D5F9801BED
:10243000A84207D835B120684069C0434007ECD4B2
:10244000002070BD002044F8300F20216173A0737C
:10245000216941F0200121612073E2E72DE9F04775
:102460001E4690460D460446C1F30747DDF820900E
:1024700008E0701C06D0FFF7AFF9A0EB0900B042EE
:102480000FD876B12068012F18D0806925EA0000A6
:102490000004000C14D000214145EAD00020BDE822
:1024A000F087002044F8300F20216173A073216968
:1024B00041F02001216120730120F0E74069E5E748
:1024C0000121E9E72DE9F0479A4691460E46044678
:1024D00000254FF02008C1F3074725E02068406938
:1024E000C043400514D42068016841F400710160C4
:1024F00021686FF480604861256384F83D8084F82A
:102500003E50206C40F00400206484F83C501FE0F2
:10251000B9F1FF3F08D0FFF75FF9A0EB0A01494589
:102520000CD8B9F1000F09D02068012F13D08069B1
:1025300026EA00000004000C0BD0CFE744F8305F1F
:1025400084F80D80A573206940F020002061257378
:102550000120BDE8F0874069EAE770B516460D46F0
:1025600004460DE02046FFF7E8FE08B1012070BDEB
:10257000681C05D0FFF730F9801BA84207D835B199
:1025800020684069C0430006ECD4002070BD0020E4
:1025900044F8300F20216173A073216941F02001BC
:1025A00021612073E2E700002DE9F04F85B000249F
:1025B0002F480094019402940394816941F0100122
:1025C0008161816901F010010491816941F0040188
:1025D0008161816901F004010491816941F0080180
:1025E00081618069DFF88C9000F008004FF400559D
:1025F0000490002229464846FFF7E9F8DFF878B052
:102600004FF4F877002239465846FFF7E0F8DFF834
:102610006CA04FF20708002241465046FFF7D7F85A
:102620000095022601250396CDE9015469464846E6
:10263000FEF7D0FF00970396CDE90154694658464E
:10264000FEF7C8FFCDF800800396CDE90154694636
:102650005046FEF7BFFF4FF4F050CDE90004694645
:1026600058460294FEF7B6FF05B0BDE8F08F0000B3
:10267000001002400010014000080140000C014021
:1026800010B58AB0002407941C2168460894FDF711
:1026900072FD12484FF08041016047F6FF41C0E9EA
:1026A0000114FA21C0E903148461FFF7B7FD079410
:1026B00007A90A480894FFF727FD302000907D20E5
:1026C000CDE901040822694604480494FFF780FD1F
:1026D0000248FFF74DFD0AB010BD00006401002064
:1026E000FEE770472DE9F041401A204C05B228461C
:1026F000E580FDF717FF1E4A1E4BFDF793FE0746C8
:102700000E46A068FDF733FF3A463346FDF7E3FD7A
:10271000FDF740FF0746A0602088281A00B26080BD
:102720002580FDF7F1FE6169FDF7A3FD06463946F8
:102730002069FDF79EFD07462846FDF7E5FEE168A6
:10274000FDF797FD3946FDF73CFD3146FDF739FDB4
:102750000546A061A088FDF7E0FE2946FDF783FD50
:10276000FDF7F1FEA080BDE8F081000090000020A0
:10277000FCA9F1D24D62503F10B50B4604461146FC
:102780001846FFF7AFFF02488088208010BD000088
:102790009000002070477047FFF7AEB910B590B0B9
:1027A00028216846FDF7E7FC14210AA8FDF7E3FCA1
:1027B000022000900120049010200024059007942E
:1027C0006846FFF7FDFA0F20CDE90A040C940D943A
:1027D00000210AA80E94FFF717FA10B010BD704739
:1027E000F0B50268164B174C174D4FF080479842D2
:1027F00005D0B84203D0A04201D0A84203D122F0B4
:1028000070064A683243984205D0B84203D0A042CD
:1028100001D0A84203D122F44074CA6822434C6913
:1028200022F08002224302608A68C2620A688262E1
:10283000984201D10969016301214161F0BD0000A5
:10284000002C0140000400400008004010B501F0D9
:102850001F030121046A99408C430462016A9A4073
:102860001143016210BD000030B5026A22F001027E
:102870000262026A4368846924F073050C682C4381
:1028800022F002058A682A430A4DA8420BD122F0A1
:102890000805CA6823F440732A434D6922F00402F4
:1028A0001D438B692B434360846149684163026225
:1028B00030BD0000002C014030B5026A22F0100249
:1028C0000262026A436884690D6824F4E64444EABB
:1028D00005248D6822F0200242EA05120B4DA84221
:1028E0000ED1CD6822F0800242EA05124D6923F430
:1028F000406343EA85038D6922F0400243EA850381
:102900004360846149688163026230BD002C0140EC
:1029100030B5026A22F480720262036A4268C469B6
:1029200023F4007324F073050C682C438D6843EA8C
:1029300005230C4DA8420ED1CD6823F4006343EA71
:1029400005234D6922F4405242EA05128D6923F4B1
:10295000806342EA05124260C4614968C163036250
:1029600030BD0000002C014030B5026A22F48052D4
:102970000262046A4268C3690D6823F4E64343EACD
:1029800005238D6824F4005444EA0534064DA8421A
:1029900004D14D6922F4804242EA85124260C3614B
:1029A00049680164046230BD002C0140FEE700006C
:1029B0000FB4084B10B504A902AA039800F030F830
:1029C000044602A9002000F0D5F8204610BC5DF8AE
:1029D00014FB0000752B00080907090E002804DB12
:1029E00000F1E02080F80014704700F00F0000F1C3
:1029F000E02080F8141D704700487047AC000020AC
:102A000002E008C8121F08C1002AFAD170477047B7
:102A1000002001E001C1121F002AFBD17047000015
:102A20002DE9FF4F89B09B460446002506E0252886
:102A30000BD05A460B999047641C6D1C20780028D7
:102A4000F5D10DB02846BDE8F08F0027B846012229
:102A5000474900E0074314F8013F203B02FA03F026
:102A60000842F7D120782E2819D114F8010F47F029
:102A700004072A280ED06FF02F022078A0F1300131
:102A800009290CD808EB880102EB410100EB010891
:102A9000641CF2E70A98641C50F8048B0A902078B2
:102AA0000028CED0642808D0692806D075281ED00A
:102AB0005A460B9990476D1C58E00A994FF00A0945
:102AC00001C90A91002802DA40422D2102E03905AD
:102AD00004D52B218DF82010012103E0F90704D043
:102AE0002021F7E78A4608AE0DE00021FAE70A99AF
:102AF0004FF00A0901C90A91F7E74946FDF766FD5B
:102B0000303106F8011D0028F7D1ADEB060000F1C9
:102B10002009780701D44FF00108C84502DDA8EB71
:102B2000090000E000208046002706E008A85A4679
:102B3000C05D0B9990476D1C7F1C5745F6DB04E088
:102B400030205A460B9990476D1CB8F10001A8F14E
:102B50000108F5DC05E016F8010B5A460B99904781
:102B60006D1CB9F10001A9F10109F4DC641C65E7F1
:102B7000092801000A68531C0B601070704710B5DB
:102B8000FDF712FB80B210BD0021425C1AB105486E
:102B900050F821007047491CC9B21429F5D302A08E
:102BA000704700002C0000205A00000010B50446B9
:102BB000014638220E48FDF7C5FAA18D0022206992
:102BC000FEF705FEE18D00226069FEF700FE218E12
:102BD0000022A069FEF7FBFD618E0022E069FEF78E
:102BE000F6FDA18E206ABDE810400022FEF7EFBD81
:102BF000AC05002070B50446002000F09DF84D4D56
:102C0000A98C2868FEF7D6FD00B101202070E98C60
:102C10006868FEF7CFFD00B101206070298DA868BB
:102C2000FEF7C8FD00B10120A070698DE868FEF7CD
:102C3000C1FD00B10120E070012000F07DF8A98CF9
:102C40002868FEF7B7FD00B101202071E98C6868A3
:102C5000FEF7B0FD00B101206071298DA868FEF774
:102C6000A9FD00B10120A071698DE868FEF7A2FD01
:102C700000B10120E071022000F05EF8A98C286804
:102C8000FEF798FD00B101202072E98C6868FEF71C
:102C900091FD00B101206072298DA868FEF78AFDC0
:102CA00000B10120A072698DE868FEF783FD00B1D4
:102CB0000120E072032000F03FF8A98C2868FEF79D
:102CC00079FD00B101202073E98C6868FEF772FD80
:102CD00000B101206073298DA868FEF76BFD00B17B
:102CE0000120A073698DE868FEF764FD00B1012042
:102CF000E073042000F020F8A98C2868FEF75AFD44
:102D000000B101202074E98C6868FEF753FD00B122
:102D100001206074298DA868FEF74CFD00B10120E8
:102D2000A074698DE868FEF745FD00B10120E074EC
:102D300070BD0000AC05002010B5314C05285DD2F7
:102D4000DFE800F0030B222F4100A18D0122206952
:102D5000FEF73DFDE18D606906E0E18D01226069CD
:102D6000FEF735FDA18D20690022FEF730FD218E92
:102D7000A0690022FEF72BFD618EE0690022FEF7BC
:102D800026FDA18E206A34E0218E0122A069FEF783
:102D90001EFDE18D00226069FEF719FDA18D2069FD
:102DA000E7E7618E0122E069FEF711FDE18D002267
:102DB0006069FEF70CFD218E0022A069FEF707FD79
:102DC000A18D2069DAE7A18E0122206AFEF7FFFCBF
:102DD000E18D00226069FEF7FAFC218E0022A069D5
:102DE000FEF7F5FC618E0022E069FEF7F0FCA18D94
:102DF0002069BDE810400022FEF7E9BC10BD0000CC
:102E0000AC050020594D92B057A0686058A02861C9
:102E100005F10C00FDF7AEFF05F11800FDF792FD7E
:102E20002846FDF7D7FE05F13000FEF7EFFA05F171
:102E30003C00FEF707F905F14800FEF72DFA05F111
:102E40005400FDF75FFEFEF75FFEFFF7A7FCFFF7FC
:102E5000ABFB05F160004749016047494160002133
:102E60004FF480488160C0E9031841618161C1610C
:102E70000162FEF7B7FCFFF703FC082105F1B4007F
:102E8000FFF70CFA00F0BEF83C4C3D480594CDE944
:102E90000640CDE90A04049486140394099008902E
:102EA000ADF83060C014ADF832004010ADF8340019
:102EB00040100701ADF83600ADF83C808001ADF858
:102EC0003E00C011ADF83860ADF84000ADF83A7082
:102ED00003A8FFF76BFE002202212046FEF777FCD5
:102EE000284C002239462046FEF771FC4FF4FA7751
:102EF0003846FEF75DFB012000F06CF800F0F0F8BA
:102F00003846FEF755FB1721084600F0E3F81E4847
:102F10000023D0E900121DA000F068F900F0E0F8ED
:102F2000FEF712F80C3595E807008DE80700012040
:102F300005F1A8018DF80A000968C8636420FEF74E
:102F400037FB31462046FEF73AFC084A694603A89B
:102F5000FEF720F803AB93E807008DE80700642034
:102F6000FEF726FBEAE7000048000000B000002062
:102F70004200000000540040A0860100000801400B
:102F8000000C0140001001401C00002034696C6FEF
:102F90000000000070B5802813D2402911D20B4BDD
:102FA000012401F007051E79AC40094BC90800EB6C
:102FB000C1100EB132B101E0012A03D0195CA14366
:102FC000195470BD195C2143FAE700002400002069
:102FD000AC01002010B5064A00214FF4806328B1EF
:102FE000FF245454491C9942F9D310BD0024F8E73A
:102FF000AC01002002490A7802708978417070475C
:103000002400002010B56420FEF7D2FAAE2000F0B4
:10301000DBF8202000F0D8F8102000F0D5F8B02020
:1030200000F0D2F8C82000F0CFF8002000F0CCF873
:10303000102000F0C9F8402000F0C6F8812000F010
:10304000C3F8FF2000F0C0F8A12000F0BDF8A620D2
:1030500000F0BAF8A82000F0B7F83F2000F0B4F86C
:10306000A42000F0B1F8D32000F0AEF8002000F06A
:10307000ABF8D52000F0A8F8F02000F0A5F8D92092
:1030800000F0A2F8222000F09FF8DA2000F09CF86F
:10309000122000F099F8DB2000F096F8202000F0D4
:1030A00093F88D2000F090F8142000F08DF8AF20F8
:1030B00000F08AF80020FFF78DFF00F011F80448B7
:1030C00000210180418001214171084610BD0000AE
:1030D00024000020014A1080518070472400002005
:1030E000FEB5002464250F4F802600BF04F1B00018
:1030F000C0B200F069F8002000F066F8102000F07F
:1031000063F807EBC410CDE90006012340227821C3
:1031100002950548FEF72AFC641CE4B2082CE5D3AE
:10312000FEBD0000AC010020100100202DE9FF4F82
:10313000834624489246CEB202883244802A06D280
:1031400081464088C1F307273844402803D3002034
:1031500004B0BDE8F08F002528E000BFABF12000EF
:1031600000FB075000243AF810801CE008FA04F035
:10317000000409D599F8021099F800002944204468
:10318000C9B2C0B2039A0BE00398C0B15FF000026D
:1031900099F8021099F8000029442044C9B2C0B23D
:1031A000FFF7F8FE641CA642E0D86D1CAF42D5D8EC
:1031B000B9F8001058463144A9F80010C8E70122B8
:1031C000E6E700002400002001B584B001210A22B6
:1031D00004A88DE807000B46002278210248FEF77C
:1031E000C5FB05B000BD000010010020F0B51D4674
:1031F0000E46174604460AE02B463A463146FFF78C
:1032000095FF2178884201D0C8B2F0BD641C2078B7
:103210000028F1D1C0B2F0BD0000000000000000A5
:10322000010203040607080900000000010203046C
:10323000000000000000000000000000000000008E
:10324000000000000010001000100010001000101E
:1032500000000010000000000028002800280000E6
:103260000000000000000000000000000024002416
:10327000007C00240048007C00480048000000005A
:103280000038005400500038001400540054003836
:1032900000100000002000540058003000280054A6
:1032A0000014000800000000001000280028001092
:1032B00000340048004800340000000000100010F6
:1032C00000100000000000000000000000000000EE
:1032D0000008001000200020002000200020002016
:1032E0000010000800200010000800080008000876
:1032F000000800080010002000100038001000280E
:1033000000000000000000000000000000000000BD
:1033100000100010007C00100010000000000000F1
:10332000000000000000000000000000000000108D
:103330000010001000000000000000000000003835
:10334000000000000000000000000000000000007D
:10335000000000000000001000000000000800084D
:1033600000100010001000100020002000000000DD
:103370000038004400440054004400440044003835
:10338000000000000010003000500010001000107D
:103390000010001000000000003800440044000449
:1033A000000800100020007C0000000000380044ED
:1033B000000400180004000400440038000000006D
:1033C00000080018002800280048007C00080008B9
:1033D00000000000007C0040004000780004000471
:1033E000004400380000000000380044004000782D
:1033F000004400440044003800000000007C000449
:103400000008001000100020002000200000000034
:1034100000380044004400380044004400440038B0
:10342000000000000038004400440044003C000458
:103430000044003800000000000000000010000000
:10344000000000000000001000000000000000006C
:10345000000000100000000000000010001000102C
:1034600000000000000C003000400030000C0000A4
:1034700000000000000000000000007C0000007C54
:1034800000000000000000000000000000600018C4
:103490000004001800600000000000000038004434
:1034A00000040008001000100000001000000000E0
:1034B00000380044004C0054005C004000400038DC
:1034C0000000000000100028002800280028007CD0
:1034D00000440044000000000078004400440078EC
:1034E000004400440044007800000000003800441C
:1034F0000040004000400040004400380000000050
:10350000007000480044004400440044004800703B
:1035100000000000007C00400040007C00400040B3
:103520000040007C00000000007C0040004000786B
:10353000004000400040004000000000003800440F
:1035400000400040005C00440044003800000000DF
:10355000004400440044007C004400440044004413
:1035600000000000003800100010001000100010D3
:1035700000100038000000000004000400040004F3
:10358000000400040044003800000000004400482B
:103590000050006000500048004800440000000057
:1035A0000040004000400040004000400040007CDF
:1035B000000000000044006C006C00540044004413
:1035C0000044004400000000004400640064005413
:1035D0000054004C004C004400000000003800443F
:1035E000004400440044004400440038000000004F
:1035F000007800440044004400780040004000404F
:10360000000000000038004400440044004400442E
:1036100000540038000400000078004400440044D6
:1036200000780048004800440000000000380044D2
:103630000040003000080004004400380000000092
:10364000007C00100010001000100010001000108E
:1036500000000000004400440044004400440044D2
:1036600000440038000000000044004400440028EA
:103670000028002800100010000000000044004452
:10368000005400540054006C002800280000000082
:1036900000440028002800100010002800280044E2
:1036A0000000000000440044002800280010001022
:1036B0000010001000000000007C00040008001052
:1036C000001000200040007C0000000000180010E6
:1036D0000010001000100010001000100010001862
:1036E000002000200010001000100010000800084A
:1036F000000000000030001000100010001000104A
:1037000000100010001000300010002800280044B5
:1037100000000000000000000000000000000000A9
:10372000000000000000000000000000000000FE9B
:103730000020001000000000000000000000000059
:10374000000000000000000000380044003C00447D
:10375000004C0034000000000040004000580064AD
:103760000044004400640058000000000000000015
:1037700000380044004000400044003800000000D1
:10378000000400040034004C00440044004C0034A9
:10379000000000000000000000380044007C0040F1
:1037A0000044003800000000000C0010007C0010F5
:1037B00000100010001000100000000000000000C9
:1037C0000034004C00440044004C003400040078F5
:1037D000004000400058006400440044004400449D
:1037E0000000000000100000007000100010001029
:1037F0000010001000000000001000000070001019
:103800000010001000100010001000E00040004008
:1038100000480050006000500048004400000000D4
:1038200000700010001000100010001000100010B8
:103830000000000000000000007800540054005414
:103840000054005400000000000000000058006414
:103850000044004400440044000000000000000058
:1038600000380044004400440044003800000000D8
:103870000000000000580064004400440064005848
:1038800000400040000000000034004C00440044B0
:10389000004C0034000400040000000000580064E4
:1038A0000040004000400040000000000000000018
:1038B00000380044003000080044003800000000D8
:1038C00000200020007800200020002000200018A8
:1038D00000000000000000000044004400440044D8
:1038E000004C0034000000000000000000440044D0
:1038F0000028002800280010000000000000000040
:10390000005400540054006C0028002800000000FF
:1039100000000000004400280010001000280044AF
:1039200000000000000000000044004400280028BF
:10393000001000100010006000000000007C000873
:10394000001000200040007C000000000018001063
:1039500000100010002000200010001000100018BF
:1039600000100010001000100010001000100010D7
:1039700000100010003000100010001000080008B7
:103980000010001000100030000000000000007463
:10399000004C0000000000000000000000000000DB
:1039A0000000000000000000000000000000000017
:1039B0000000000000000000000000000000000007
:1039C0000000000C000C000C000C000C000C000CA3
:1039D000000C000C000C000C0000000C000C00009F
:1039E000000000000000001B001B001B001B001B50
:1039F00000000000000000000000000000000000C7
:103A000000000000000000000000801980198019EB
:103A10008019C07FC07F80190033C07FC07F003312
:103A20000033003300330000000000000000001EDF
:103A3000003F807580650074003C001E0007800513
:103A4000806580658075003F001E00040004000052
:103A50000000007000D840D8C0D880D9007300069C
:103A6000000C801BC036C066C046C0068003000044
:103A7000000000000000001E003F00330033003350
:103A8000001E000CC03CC066806380618063C03E45
:103A9000801C0000000000000000000C000C000C66
:103AA000000C000C000000000000000000000000FE
:103AB0000000000000000000000000008000000185
:103AC0000003000600060004000C000C000C000CB3
:103AD000000C000C0004000600060003000180003A
:103AE000002000100018000C000C00040006000666
:103AF00000060006000600060004000C000C00187A
:103B0000001000200000000C002D003F001E0033BC
:103B100000000000000000000000000000000000A5
:103B20000000000000000000000000000000000C89
:103B3000000C000C000CC0FFC0FF000C000C000CBF
:103B4000000C000000000000000000000000000069
:103B50000000000000000000000000000000000065
:103B6000000000000000000C000C0004000400082D
:103B70000000000000000000000000000000000045
:103B80000000001E001E00000000000000000000F9
:103B90000000000000000000000000000000000025
:103BA0000000000000000000000000000000000C09
:103BB000000C0000000000000000000300030003F0
:103BC0000006000600060006000C000C000C000CAD
:103BD0000018001800180000000000000000001E7F
:103BE000003F0033806180618061806D806D806105
:103BF000806180610033003F001E00000000000073
:103C000000000006000E001E00360026000600061A
:103C1000000600060006000600060006000600007A
:103C2000000000000000001E003F80738061806182
:103C3000800100030006000C001800300060807F47
:103C4000807F0000000000000000001C003E0063B8
:103C500000630003000E000E0003800180018061FC
:103C60008073003F001E00000000000000000006FE
:103C7000000E000E001E001E001600360036006604
:103C8000807F807F00060006000600000000000024
:103C90000000007F007F006000600060006E007F19
:103CA00080638001800180618073003F001E0000FE
:103CB000000000000000001E003F803380610060B3
:103CC000006E007F80738061806180618033003F7F
:103CD000001E0000000000000000807F807F800147
:103CE0000003000300060006000C000C000C000896
:103CF0000018001800180000000000000000001E5E
:103D0000003F8063806180610021001E003F806170
:103D1000806180618061003F001E000000000000A3
:103D20000000001E003F007380618061806180732D
:103D3000803F801D800180610073003F001E0000F5
:103D40000000000000000000000000000000000C67
:103D5000000C000000000000000000000000000C4B
:103D6000000C000000000000000000000000000047
:103D700000000000000C000C00000000000000002B
:103D80000000000C000C000400040008000000000B
:103D90000000000080008003000E00380060003842
:103DA000000E800380000000000000000000000002
:103DB00000000000000000000000807F807F000005
:103DC0000000807F807F00000000000000000000F5
:103DD0000000000000000000000000000040007033
:103DE000001C000780010007001C0070004000005C
:103DF00000000000000000000000001F803FC071B4
:103E0000C060C000C00180030007000E000C000C61
:103E10000000000C000C0000000000000000001E6C
:103E2000003F803180718063806F806D806D806F16
:103E3000806700600032003E001C000000000000AF
:103E40000000000E000E001B001B001B001B803139
:103E50008031803F803F8031C060C060C060000022
:103E6000000000000000007C007E0063006300632F
:103E70000063007E007E0063806180618063007F5C
:103E8000007E0000000000000000001E003F8031A6
:103E90008061006000600060006000600060806120
:103EA0008031003F001E0000000000000000007C88
:103EB000007F0063806380618061806180618061D8
:103EC000806100630063007E007C00000000000051
:103ED0000000807F807F0060006000600060007FE5
:103EE000007F0060006000600060807F807F0000D5
:103EF000000000000000807F807F006000600060A4
:103F00000060007F007F0060006000600060006073
:103F100000600000000000000000001E003F803133
:103F20008061006000600060806380638061806108
:103F30008031803F001E0000000000000000806112
:103F400080618061806180618061807F807F80612D
:103F500080618061806180618061000000000000FC
:103F60000000003F003F000C000C000C000C000C97
:103F7000000C000C000C000C000C003F003F000087
:103F800000000000000080018001800180018001AC
:103F90008001800180018001806180618073003F29
:103FA000001E0000000000000000C060806100638F
:103FB00000660066006C0078007C006600660063A6
:103FC00080618061C06000000000000000000060AF
:103FD00000600060006000600060006000600060E1
:103FE000006000600060807F807F000000000000B3
:103FF0000000C071C071C07BC07AC06AC06AC06E68
:10400000C064C060C060C060C060C060C0600000CC
:1040100000000000000080718071807980798079D3
:10402000806D806D806D806580678067806780634C
:1040300080630000000000000000001E003F00330D
:104040008061806180618061806180618061806168
:104050000033003F001E0000000000000000007E52
:10406000007F80638061806180618063007F007E6B
:104070000060006000600060006000000000000060
:104080000000001E003F003380618061806180611C
:1040900080618061806580670033803F401E000042
:1040A000000000000000007E007F8063806180616E
:1040B0008063007F007E0066006300638061806132
:1040C000C0600000000000000000000E001F8031F2
:1040D000803100300038001E00078003806180615D
:1040E0008031003F001E0000000000000000C0FF03
:1040F000C0FF000C000C000C000C000C000C000CAD
:10410000000C000C000C000C000C00000000000073
:104110000000806180618061806180618061806178
:1041200080618061806180618073003F001E0000BB
:10413000000000000000C060C060C06080318031BD
:104140008031001B001B001B001B000E000E000E28
:1041500000040000000000000000C0C0C0C0C0C0DB
:10416000C0C0C0C0C0CC804C804C805E80528052A9
:104170008073806180610000000000000000C0C00A
:10418000806080610033003B001E000C000C001EAC
:10419000001F003B80718061C0C000000000000073
:1041A0000000C0C08061806100330033001E001E2B
:1041B000000C000C000C000C000C000C000C0000AB
:1041C000000000000000803F803F800100030003EA
:1041D0000006000C000C0018001800300060807F02
:1041E000807F000000000000000F000F000C000C9A
:1041F000000C000C000C000C000C000C000C000C5F
:10420000000C000C000C000C000F000F0000001848
:1042100000180018000C000C000C000C0006000632
:104220000006000600030003000300000000000079
:10423000001E001E0006000600060006000600061E
:10424000000600060006000600060006000600063E
:10425000001E001E0000000C000C001E00120033A7
:104260000033806180610000000000000000000059
:10427000000000000000000000000000000000003E
:10428000000000000000000000000000000000002E
:104290000000000000000000E0FF00000000003807
:1042A0000018000C000000000000000000000000EA
:1042B00000000000000000000000000000000000FE
:1042C00000000000000000000000001F803F80612F
:1042D0008001801F803F80618063807FC038000044
:1042E0000000000000000060006000600060006EE0
:1042F000007F807380618061806180618073007F56
:10430000006E00000000000000000000000000003F
:104310000000001E003F80738061006000608061CB
:104320008073003F001E00000000000000008001BC
:10433000800180018001801D803F807380618061E9
:10434000806180618073803F801D0000000000005C
:1043500000000000000000000000001E003F00738D
:104360008061807F807F00608071003F001E0000C0
:10437000000000000000C007C00F000C000C807F90
:10438000807F000C000C000C000C000C000C000CDA
:10439000000C000000000000000000000000000011
:1043A000801D803F80738061806180618061807347
:1043B000803F801D80018063007F003E0000006020
:1043C000006000600060006F807F807180618061AC
:1043D0008061806180618061806100000000000078
:1043E00000000006000600000000003E003E00063F
:1043F0000006000600060006000600060006000093
:10440000000000000006000600000000003E003E24
:10441000000600060006000600060006000600066C
:1044200000060046007E003C000000600060006066
:104430000060806100630066006C007C00760063B1
:1044400000638061C0600000000000000000003ECA
:10445000003E0006000600060006000600060006F4
:10446000000600060006000600060000000000002E
:104470000000000000000000000080DDC0FFC0CE92
:10448000C0CCC0CCC0CCC0CCC0CCC0CCC0CC000058
:104490000000000000000000000000000000006FAD
:1044A000807F8071806180618061806180618061D6
:1044B000806100000000000000000000000000001B
:1044C0000000001E003F8073806180618061806118
:1044D0008073003F001E000000000000000000008C
:1044E00000000000006E007F807380618061806149
:1044F00080618073007F006E00600060006000607B
:104500000000000000000000801D803F807380617B
:104510008061806180618073803F801D80018001A7
:104520008001800100000000000000000000006722
:10453000803F003900300030003000300030003063
:10454000003000000000000000000000000000003B
:104550000000001E803F80610060007F803F80017E
:104560008061007F001E00000000000000000000CD
:10457000000800180018007F007F001800180018BD
:10458000001800180018801F800F000000000000B5
:104590000000000000000000000080618061806178
:1045A00080618061806180618063807F803D0000E8
:1045B0000000000000000000000000000000C060DB
:1045C000803180318031001B001B001B000E000E6B
:1045D00000060000000000000000000000000000D5
:1045E000000080DD80DD80DD00550055005500773E
:1045F0000077002200220000000000000000000000
:10460000000000000000806100330033001E000C39
:10461000000C001E00330033806100000000000029
:1046200000000000000000008061806180310033E4
:104630000033001B001B001B000E000E000E001CB0
:10464000007C007000000000000000000000C07F3F
:10465000C07F800100030006000C00180030C07FFE
:10466000C07F0000000000008003800700060006F5
:10467000000600060006000E001C001C000E0006CE
:1046800000060006000600068007800300060006FC
:1046900000060006000600060006000600060006EA
:1046A00000060006000600060006000600060006DA
:1046B0000038003C000C000C000C000C000C000E3C
:1046C00000070007000E000C000C000C000C000C92
:1046D000003C003800000000000000000000000066
:1046E00000008038807F00470000000000000000CC
:1046F00000000000000000000040404040404040FA
:1047000040404141414141404040404040404040A4
:104710004040404040404040400502020202020248
:104720000202020202020202022020202020202097
:1047300020202002020202020202909090909090AB
:104740001010101010101010101010101010101069
:1047500010101010020202020202888888888888DD
:1047600008080808080808080808080808080808C9
:10477000080808080202020240000000F94600088A
:10478000230000002A00000030000000310000007B
:10479000320000003300000034000000350000004B
:1047A000360000003700000038000000390000002B
:1047B00045000000460000006400000065000000A5
:1047C000660000006C000000720000007500000030
:1047D000F047000800000020B0000000002A000898
:1047E000A0480008B000002038090000102A000886
:1047F00001000000010000001000000000000000A7
:104800000024F400070A0000303200080B120000F8
:104810009C3900080000000000000000C0470008AC
:10482000B447000880470008844700088C47000808
:104830009047000894470008CC47000898470008B4
:104840009C470008A0470008B8470008A447000894
:10485000A8470008AC470008BC470008C447000848
:1048600088470008C8470008B04700080300000058
:104870003200000000008F01000000000000000076
:104880000000000064000000000000000AD7233C84
:104890008FC2F53C6F12833A000000000000000058
:04000005080000ED02
:00000001FF
